:100000000EC035C025C024C023C045C021C020C0BB
:100010001FC01EC01DC01CC01BC01AC019C01124A7
:100020001FBECFEDCDBF10E0A0E6B0E0E2EAF1E008
:1000300002C005900D92A236B107D9F720E0A2E6E2
:10004000B0E001C01D92A336B207E1F734D0A7C0DB
:10005000D7CF8F7087B98DE08A95F1F70000369A77
:10006000349BFECF349A24B135B1C90108951F9253
:100070000F920FB60F9211248F93B19906C0C098BA
:1000800084E083BF8091600082BF8F910F900FBE8C
:100090000F901F9018951F920F920FB60F92112478
:1000A0008F93C09A13BE80E782BF8F910F900FBECF
:1000B0000F901F90189580E886BD91E096BD26E0D0
:1000C00028BB97BB1ABC13BE98E892BF19BC18BCDA
:1000D00017BC10BE1CBC1FBC1EBC1BBC1DBC90E4CE
:1000E0009BBF23E025BF9ABF92E099BF1DB888B996
:1000F00013B814BA84B3837084BBA49A17B885E884
:1001000086B983B18F7583B92FE788E391E02150D9
:1001100080409040E1F700C000007894C0E8D0E74C
:1001200082E097DF43E0969587954A95E1F78093C3
:10013000620026C082E08DDF2091620033E0969558
:1001400087953A95E1F7821B893C18F01092600080
:1001500007C0813818F48093600002C0C09360002B
:1001600080916000805980936000222319F0215013
:10017000209362008FE097E20197F1F700C0000042
:10018000B19BD8CF09C0C098D093600087E99AE3AB
:100190000197F1F700C00000B19BC2CFF4CFF894F3
:0201A000FFCF8F
:0201A2007000EB
:00000001FF
