:1000000029C000000C945E080C947C0840C00000DD
:100010003EC000000C9412093AC0000038C0000035
:1000200036C000000C94DD0832C000000C94930828
:100030002EC000000AC500002CC5000028C000002A
:1000400026C0000024C0000022C0000020C0000024
:100050001EC0000011241FBECFE5D8E0DEBFCDBF1B
:1000600010E0A0E6B0E0EEE7F4E102C005900D92EA
:10007000AA37B107D9F720E0AAE7B0E001C01D9286
:10008000AB3BB207E1F70E943C090C943D0AB8CFA4
:10009000CF92DF92EF92FF920F931F936B017C013F
:1000A00020E030E040E05FE468D287FD0CC020E053
:1000B00030E040E05FE4C701B60197D1E0D28B01A8
:1000C0009C01305805C0C701B601D9D28B019C01F3
:1000D000B801C9011F910F91FF90EF90DF90CF9071
:1000E0000895A4E0B0E0E7E7F0E00C94DB097C01C0
:1000F0006A01FC018081823008F44AC1FB019081D1
:10010000923008F442C1843079F4943009F040C14F
:10011000F7019181FB018181981709F439C1A2E7A8
:10012000EA2EA0E0FA2E34C1943009F42EC19230A8
:1001300091F4823009F02CC188E0F701DA010190D6
:100140000D928A95E1F7FB018181F7019181892365
:10015000FA0181831CC1823009F417C1F701828141
:100160009381FB01A281B381F7010481158126816E
:100170003781FB0184809580A680B780FC01EA1B53
:10018000FB0BAF01F7FF04C0442755274E1B5F0B45
:10019000403251050CF074C01E161F06B4F5240140
:1001A0003501042E04C076946794579447940A94BA
:1001B000D2F749825A826B827C82412C512C3201C7
:1001C000439404C0440C551C661C771C4A95D2F716
:1001D00041E0441A510861087108482059206A20FA
:1001E0007B20812C912C5401839445284628472854
:1001F00019F4812C912C540149805A806B807C80A9
:1002000084289528A628B72846C0EF2B09F443C0B8
:10021000840F951F28013901042E04C07694679439
:10022000579447940A94D2F749825A826B827C820F
:10023000412C512C3201439404C0440C551C661CC3
:10024000771C4A95D2F741E0441A510861087108B9
:10025000402251226222732201E010E020E030E0CF
:1002600045284628472819F400E010E09801498005
:100270005A806B807C8004291529262937290BC0D8
:10028000A817B90724F4812C912C540104C0CD0186
:1002900000E010E09801F7014181FB015181451711
:1002A00009F446C0442349F024013501401A510A9B
:1002B000620A730A9301820104C0081919092A0904
:1002C0003B0937FD05C0F6011182938382830CC080
:1002D00041E0F60141839383828330952095109508
:1002E00001951F4F2F4F3F4F04831583268337837C
:1002F0000EC0880F991FAA1FBB1FF6018483958328
:10030000A683B78382819381019793838283F601C9
:1003100084819581A681B781AC01BD01415051090D
:10032000610971094F3F5F4F6F4F7F4310F30CC05E
:10033000F601418393838283080D191D2A1D3B1DFD
:10034000048315832683378383E0F6018083448109
:1003500055816681778177FF1AC0DB01CA01817000
:100360009927AA27BB277695679557954795842B9C
:10037000952BA62BB72B84839583A683B783828185
:10038000938101969383828302C07B0101C0760131
:10039000C7012496E0E10C94F709A0E2B0E0E3ED98
:1003A000F1E00C94E9096D8F7E8F8F8F98A3298FD0
:1003B0003A8F4B8F5C8FBE016F5E7F4FCE014D96A3
:1003C00074D2BE01675F7F4FCE0149966ED2AE01F7
:1003D0004F5F5F4FBE01675F7F4FCE01419681DE69
:1003E0009AD1A096E2E00C94050AA0E2B0E0EAEF10
:1003F000F1E0EFC76D8F7E8F8F8F98A3298F3A8F93
:100400004B8F5C8FBE016F5E7F4FCE014D964DD2FC
:10041000BE01675F7F4FCE01499647D28A8591E042
:1004200089278A87AE014F5F5F4FBE01675F7F4FAD
:10043000CE01419656DE6FD1A096E2E0E6C7A8E174
:10044000B0E0E4E2F2E0BFC76D8B7E8B8F8B988FBC
:10045000298B3A8B4B8B5C8BBE01675F7F4FCE0144
:10046000459623D2BE016F5F7F4FCE0141961DD2CC
:100470009985923008F475C08981823008F474C07F
:100480002A853A8123272A87943011F0923019F473
:10049000981367C06CC0843039F41D861E861F8691
:1004A000188A1C861B8604C0823029F484E0898760
:1004B000CE0109965EC08B859C852B813C81821B79
:1004C000930B9C878B874D855E856F857889CD8062
:1004D000DE80EF80F8844C155D056E057F0538F4ED
:1004E000440F551F661F771F01979C878B87EFE18D
:1004F000F0E000E010E020E030E480E090E0DC019B
:100500004C155D056E057F0540F0802B912BA22BCD
:10051000B32B4C195D096E097F0936952795179500
:100520000795440F551F661F771F319749F78C01B8
:100530009D010F771127222733270034110521054C
:10054000310559F487FD09C0452B462B472B29F06F
:10055000805C9F4FAF4FBF4F80788D879E87AF875E
:10056000B88BCE01099605C0CE01019602C082E784
:1005700090E0D1D06896E8E042C7A8E1B0E0E2ECB4
:10058000F2E027C76D8B7E8B8F8B988F298B3A8BF0
:100590004B8B5C8BBE01675F7F4FCE01459685D14B
:1005A000BE016F5F7F4FCE0141967FD1898582303A
:1005B00050F08981823038F0BE016F5F7F4FCE01ED
:1005C0000996E2D101C08FEF6896E2E01EC7A8E06D
:1005D000B0E0ECEEF2E0FBC623E029838B019C0146
:1005E000002737FD0395112722273327402F0A8341
:1005F000611571058105910519F482E0898334C084
:100600002EE130E03C832B83442371F061157105AA
:10061000810520E8920761F1002711279801061B48
:10062000170B280B390B02C08B019C01C901B801C3
:10063000A7D60197181619062CF00D831E832F8359
:10064000388712C0082E04C0000F111F221F331F4D
:100650000A94D2F70D831E832F8338872EE130E072
:10066000281B390B3C832B83CE01019654D004C048
:1006700060E070E080E09FEC2896E4E0C4C6ACE067
:10068000B0E0E4E4F3E0A3C669877A878B879C87B0
:10069000BE016F5F7F4FCE01099607D189818230FD
:1006A00091F1823080F1843041F48A81882331F1E4
:1006B00000E010E020E030E829C02B813C8137FDCC
:1006C00022C02F3131058CF78EE190E0821B930B15
:1006D0000D811E812F81388504C036952795179589
:1006E00007958A95D2F78A81882381F030952095E5
:1006F000109501951F4F2F4F3F4F08C00FEF1FEF71
:100700002FEF3FE703C000E010E09801B801C901F6
:100710002C96E4E078C60F931F93CF93DF93DC0110
:1007200014964D915D916D917C9117971196EC9176
:1007300011978C91823020F460618FEF90E0A6C019
:10074000843009F49EC0823009F495C041155105EA
:100750006105710509F492C012962D913C91139791
:1007600022388FEF38070CF058C0C2E8DFEFC21B09
:10077000D30BCA31D1056CF58A019B010C2E04C044
:1007800036952795179507950A94D2F781E090E062
:10079000A0E0B0E00C2E04C0880F991FAA1FBB1F59
:1007A0000A94D2F70197A109B10984239523A623BE
:1007B000B72341E050E060E070E0892B8A2B8B2B5F
:1007C00019F440E050E0BA01402B512B622B732BFF
:1007D00003C040E050E0BA01DB01CA018F779927DE
:1007E000AA27BB2780349105A105B10539F447FF3D
:1007F00009C0405C5F4F6F4F7F4F04C0415C5F4F4B
:100800006F4F7F4F81E090E041155105610520E475
:10081000720748F580E090E026C0203831058CF55D
:10082000DB01CA018F779927AA27BB27803491055E
:10083000A105B10539F447FF09C0405C5F4F6F4F18
:100840007F4F04C0415C5F4F6F4F7F4F77FD04C007
:10085000C90181589F4F07C0769567955795479571
:10086000C90180589F4F97E07695679557954795B2
:100870009A95D1F70BC080E090E005C080E090E051
:1008800005C08FEF90E040E050E0BA01982F9695B8
:10089000E0FB97F9362F80FB37F9642F752F832FF4
:1008A000DF91CF911F910F910895CF92DF92EF9238
:1008B000DC01FB01CC901196DC90119712968C9183
:1008C00012973FE7E32EE8226E2DA60170E0982FE5
:1008D000991F9927991F13962C91822F880F892B86
:1008E00090E027FB222720F92183009729F5411565
:1008F00051056105710511F482E027C082E89FEF80
:100900009383828327E0440F551F661F771F2A9524
:10091000D1F783E0808309C0440F551F661F771FFE
:1009200082819381019793838283411551056105EB
:1009300080E4780788F320C08F3F910579F4411552
:1009400051056105710519F484E0808319C0E4FE46
:1009500003C081E0808310C010820EC08F579109C0
:100960009383828383E0808387E0440F551F661F53
:10097000771F8A95D1F770644483558366837783A4
:10098000EF90DF90CF900895CF93FC01DB01908131
:10099000923008F452C08C91823008F44EC09430EA
:1009A00071F4843039F411962C9130E08181281B48
:1009B000310948C08181882309F43FC03BC084309D
:1009C00029F411968C91811138C034C0923019F4F9
:1009D0008230B9F735C0823069F3C18111968C91AC
:1009E0001197C8131DC02281338112968D919C915D
:1009F0001397821793070CF413C0281739070CF4C8
:100A000017C0448155816681778114968D919D919F
:100A10000D90BC91A02D84179507A607B70718F471
:100A2000C11108C00AC0481759076A077B0740F47C
:100A3000C11103C02FEF3FEF05C021E030E002C03D
:100A400020E030E0C901CF9108951F920F920FB6B8
:100A50000F9211242F938F939F93EF93FF93E09125
:100A6000B7008E2F8F5F8F709CB12091B6008217D8
:100A700031F0F0E0EA55FF4F90838093B700FF918B
:100A8000EF919F918F912F910F900FBE0F901F901C
:100A900018951F920F920FB60F9211248F939F9368
:100AA000EF93FF938091B80090919500891759F0CA
:100AB000E82FF0E0EA56FF4F90819CB98F5F8F706E
:100AC0008093B80001C05598FF91EF919F918F914D
:100AD0000F900FBE0F901F90189583E389B910BC3B
:100AE00088E98AB980E380BD089584E28BBB88E100
:100AF0008ABB18BA9FE097BB15BA8FEF84BB8CE412
:100B000082BB80EF81BB84E083BF86E082BF1CBED6
:100B10001FBC83E08EBD82EC8DBD87EF8CBD17BC02
:100B200016BC1BBC1ABC19BC18BC12BC15BC88E88E
:100B300084BD13BC8BB7806C8BBF95BF14BE80EC9B
:100B40008ABF85E489BF1AB880E888B910BE80E4FE
:100B500087B986E886B91DB816BE11BC0895D59828
:100B6000DD9A0895CD9B12C0CA9B12C00CC08FE0C5
:100B7000809393009093940008958A3078F48F5F67
:100B800080939300089510929300089591E001C01E
:100B900092E080919300853081F7E9CF0895959A8E
:100BA00007C0EFE9FFE03197F1F700C000000197BF
:100BB00082309105B0F79598089585B38FEF85BB86
:100BC000C39894B384BB87B38F6087BB089598B3F1
:100BD000907F98BB90919200911108C02091700075
:100BE0003091710030939100209390009091920089
:100BF000933009F52091700030917100309391008D
:100C000020939000811103C0809161001FC081304A
:100C100019F4809162001AC0823019F48091630047
:100C200015C0833019F48091640010C0843079F4C9
:100C3000809165000BC080919000909191006AE0D6
:100C400070E08AD38A599F4FFC01808185BB8091D7
:100C5000920080919000909191006AE070E07CD3C6
:100C6000709391006093900028B33091920081E0DE
:100C700090E0032E01C0880F0A94EAF7282B28BBC6
:100C8000809192008F5F80939200809192008430D7
:100C900010F0109292000895CF9380E04AD3969579
:100CA0008795969587958A3138F090917F00C82F67
:100CB000981718F4C92F01C0CAE181E03AD38F30E8
:100CC000910538F0883E23E0920728F087EE93E004
:100CD00002C08FE090E04091810050E02C2F30E086
:100CE000BA016F5F7F4F621773072CF041505109B3
:100CF0002417350714F4C0938100209188003091A7
:100D00008900A901465F5F4F8417950728F42A5090
:100D100031092817390720F09093890080938800C3
:100D2000CF9108958091820090918300892B09F4DE
:100D300052C08091B90080FF4EC080918C0090918C
:100D40008D000097A1F46091810070E080E090E058
:100D50003EDC29E23CE54FE050E471DB20E030E08E
:100D600048E053E41ADB94D96093600008956091E1
:100D7000BA006C7F61606093BA0070918100272F88
:100D800030E0A901435051094817590758F44091E0
:100D90007E00423038F0415040937E006C7F6260AC
:100DA0006093BA002D5F3F4F8217930760F48091E4
:100DB0007E00833340F48F5F80937E008091BA0081
:100DC00083608093BA0080917E00885776957695EF
:100DD000870F809360000895809194001092940092
:100DE000813021F0823009F099C020C08091B90093
:100DF00080FF11C08AE090E0D2DE949815BC88E8AC
:100E000084BD809360008091B9008E7F8093B9008B
:100E10009798969A08958AE090E0C1DE8091B90093
:100E200081608093B900979A969808958091B9004F
:100E300081FF1FC08AE090E0B2DE8091B9008D7F13
:100E40008093B900DB98DC988F738093B900609130
:100E50008A0070918B0080E190E0FCC28FE39CE9F6
:100E60000197F1F700C0000080917A008F5F8093B6
:100E70007A00CA9904C080917A00863978F39091FB
:100E8000B90080917A0090FF0FC0863981F580ED1E
:100E900097E085DECD9940C06091810060937F002E
:100EA00080E090E0CAD238C0863909F580918A0086
:100EB00090918B00909371008093700080ED97E08B
:100EC0006EDE09C09FEF29EF80E091502040804006
:100ED000E1F700C00000CA9BF5CFCD991DC060911D
:100EE0008A0070918B0080E190E0B4D215C08AE056
:100EF00090E055DE80E190E09BD290938B00809350
:100F00008A008091B90082608093B900DB9A8F7368
:100F100080688093B900979810927A000895809124
:100F20007D00803109F06EC010927D004091B900C3
:100F300040FF53C08091840090918500019690936A
:100F40008500809384002091880030918900821769
:100F5000930780F03093850020938400949815BC0B
:100F600088E884BD80936000842F8E7F8093B900D1
:100F70009798969A8091880090918900209184009A
:100F800030918500821B930B9093830080938200A5
:100F90002091B900322F3C7329F490937100809313
:100FA00070001FC0822F8C7049F0822F8695869525
:100FB0008D5F8370880F880F237F0BC0822F807313
:100FC00081F0822F82958F708D5F83708295807FF4
:100FD0002F7C282B2093B90004C01092850010921A
:100FE00084008091B90081FF10C0982F907C11F48B
:100FF000DC9A0895982F907C90548F73892B80935E
:10100000B90008958F5F80937D00089580917B00E3
:1010100090917C00803C23E0920791F410927C0038
:1010200010927B008091B90081FF0FC080918A00EF
:1010300090918B00019690938B0080938A00089585
:10104000019690937C0080937B000895CF93C0918C
:101050008100809180008C17B1F06C2F70E080E0EF
:1010600090E0B5DA23E333E343E250E4E8D910D863
:101070007093710060937000C09380008091B900FC
:10108000837F886017C080918800909189002091AB
:101090008600309187002817390771F0909371000E
:1010A0008093700090938700809386008091B900B0
:1010B0008F7C80628093B900CF9108951F920F9228
:1010C0000FB60F9211248F939F938091820090917D
:1010D0008300892B51F08091B90080FF06C094985D
:1010E00087E085BD8091600084BD9F918F910F90B6
:1010F0000FBE0F901F9018951F920F920FB60F9270
:1011000011248F939F9380918E0090918F00019670
:1011100090938F0080938E009F918F910F900FBEC0
:101120000F901F9018951F920F920FB60F921124D7
:101130002F933F934F935F936F937F938F939F93DF
:10114000AF93BF93EF93FF9386E082BF0BDD809157
:10115000B90080FD02C080E01EC080918C0090919B
:101160008D00892B11F481E016C08091BA00837044
:10117000813011F482E007C0823011F483E003C0B3
:10118000833041F484E023DD8091BA008C7F80932A
:10119000BA0002C082E01BDDFF91EF91BF91AF91D9
:1011A0009F918F917F916F915F914F913F912F917F
:1011B0000F900FBE0F901F9018951F920F920FB6B1
:1011C0000F9211242F933F934F935F936F937F93CD
:1011D0008F939F93AF93BF93EF93FF9382EC8DBD5B
:1011E00087EF8CBD80918E0090918F0090938D0041
:1011F00080938C0010928F0010928E0090DE06DF9C
:1012000091DDFF91EF91BF91AF919F918F917F9170
:101210006F915F914F913F912F910F900FBE0F9063
:101220001F9018951F920F920FB60F9211248F9353
:101230009F938091820090918300892B49F0809147
:10124000B90080FF05C0949A15BC88E884BD0DC024
:10125000949815BC88E884BD809360008091B900A3
:101260008E7F8093B9009798969A9F918F910F9057
:101270000FBE0F901F90189538DC71DC9EDC2DDCC2
:101280008D9A9598CA9907C0CD9905C080ED97E0D1
:1012900086DC8FEF0AC0CA990FC0CD9B0DC080EDD0
:1012A00097E07DDC80E090E0BBD080937F001092DF
:1012B0008B0010928A0011C0CA9B12C0CD9910C039
:1012C00080ED97E06CDC8FEF80937F0080E190E011
:1012D000AFD090938B0080938A008CE291E01AC08B
:1012E0008EE190E05CDC80E090E09AD080937F001B
:1012F00080E190E09DD090938B0080938A002FEF47
:1013000083EC99E0215080409040E1F700C000005C
:101310008EE190E044DC7894BFDC98DE5DDD2FEF59
:1013200080E792E0215080409040E1F700C000004B
:10133000F3CF806487B94AE64A95F1F700C0369A40
:10134000349BFECF349A24B135B1932F80E0AC01A9
:10135000420F511DCA010895AA1BBB1B51E107C0D2
:10136000AA1FBB1FA617B70710F0A61BB70B881F35
:10137000991F5A95A9F780959095BC01CD010895C4
:1013800006D084FF0895CB0102D0805F0895AA277C
:10139000992329F4A85F982B11F480E108959031E6
:1013A00018F4AD5F9295A395990FE8F78A2F9927C6
:1013B00008952F923F924F925F926F927F928F92F9
:1013C0009F92AF92BF92CF92DF92EF92FF920F93D4
:1013D0001F93CF93DF93CDB7DEB7CA1BDB0B0FB6DE
:1013E000F894DEBF0FBECDBF09942A88398848889B
:1013F0005F846E847D848C849B84AA84B984C88431
:10140000DF80EE80FD800C811B81AA81B981CE0F27
:10141000D11D0FB6F894DEBF0FBECDBFED0108950C
:10142000E199FECF9FBB8EBBE09A99278DB30895BB
:10143000A8E1B0E042E050E012C0262FE199FECFD3
:101440009FBB8EBB2DBB0FB6F894E29AE19A0FBEFC
:1014500001960895F2DF272FF1CFDC01CB01FC01CB
:10146000E199FECF06C0FFBBEEBBE09A31960DB20C
:0E1470000D9241505040B8F70895F894FFCF08
:10147E008800794008013F065B4F666D7D077F6FE0
:0A148E00341200000000000000000E
:00000001FF
