S0120000536F66745F73746172742E73726563E9
S11300000EC01FC01DC01CC01BC02FC019C018C00B
S113001017C016C015C014C013C012C011C01124DB
S11300201FBECFEDCDBF10E0A0E6B0E0E4E1F1E00B
S113003002C005900D92A236B107D9F726D068C048
S1130040DFCF1F920F920FB60F9211248F93B199A5
S113005006C0C09884E083BF8091600082BF8F9106
S11300600F900FBE0F901F9018951F920F920FB60E
S11300700F9211248F93C09A13BE80E782BF8F9191
S11300800F900FBE0F901F90189580E886BD91E0E9
S113009096BD26E028BB97BB1ABC13BE98E892BF56
S11300A019BC18BC17BC10BE1CBC1FBC1EBC1BBC9E
S11300B01DBC90E49BBF23E025BF9ABF92E099BF8B
S11300C01DB888B913B814BA16B82FE788E391E0BD
S11300D0215080409040E1F700C00000789490E700
S11300E029EFB1990BC0809160008F5F8A3F18F4AB
S11300F08093600006C02093600003C0C098909372
S11301006000E7E9FAE33197F1F700C00000E9CFB6
S1070110F894FFCF8D
S1050114700075
S9030000FC
