:100000000EC02DC01DC01CC01BC03DC019C018C0F3
:1000100017C016C015C014C013C012C011C01124DF
:100020001FBECFEDCDBF10E0A0E6B0E0ECE4F1E004
:1000300002C005900D92A236B107D9F734D084C022
:10004000DFCF8F7087B98DE08A95F1F70000369A7F
:10005000349BFECF349A24B135B1C90108951F9263
:100060000F920FB60F9211248F93B19906C0C098CA
:1000700084E083BF8091600082BF8F910F900FBE9C
:100080000F901F9018951F920F920FB60F92112488
:100090008F93C09A13BE80E782BF8F910F900FBEDF
:1000A0000F901F90189580E886BD91E096BD26E0E0
:1000B00028BB97BB1ABC13BE98E892BF19BC18BCEA
:1000C00017BC10BE1CBC1FBC1EBC1BBC1DBC90E4DE
:1000D0009BBF23E025BF9ABF92E099BF1DB888B9A6
:1000E00013B814BA84B3837084BBA49A17B885E894
:1000F00086B983B18F7583B92FE788E391E02150EA
:1001000080409040E1F700C000007894C0E7D9EF4C
:10011000B19910C082E095DF23E0969587952A95E6
:10012000E1F780598A3F18F48093600006C0D093AD
:10013000600003C0C098C093600087E99AE301970C
:0C014000F1F700C00000E4CFF894FFCFFE
:02014C00700041
:00000001FF
